:0600000006C0C1C0CDC026
:10000C00D6C0A8950AE001BD0FED0DBF07E008BBF7
:10001C0008EF07BB0DE702BB02E001BB7724882485
:10002C009924AA24BB24CC2467D0152C262C01E7B8
:10003C00302E02E0402E882777279AD0E8E2F2E0B3
:10004C0008E0C0E6D0E0C895099231960A95D9F738
:10005C000FE002BF01E003BF02E008BF09BF01E8E7
:10006C000FBD01E00EBD00E005BF7894849908C077
:10007C00859B0EC0B09B0CC01CE231E030D00BC095
:10008C00859906C0B19B04C014ED3EEF28D003C087
:10009C0077248824992480FF20C08E7FA714B8046D
:1000AC00C904D9F05CF004E6A01A00E0B00A00E044
:1000BC00C00AA714B804C90464F00EC004E6A00E6C
:1000CC0000E0B01E00E0C01EA714B804C9040CF474
:1000DC0003C0A72CB82CC92C0FD0A895C7CF0FEFF5
:1000EC0037FF0027712E832E902E06E0770C881C8C
:1000FC00991C0A95D9F708957F928F929F9212E3DB
:10010C0030E0EDDF1A2D2B2D3C2D37FF06C01150A2
:10011C00204030401095209530951715280539054D
:10012C0018F4172D282D392D90E0A0E1B7E2772493
:10013C0088249924889409E1991FAA1FBB1F0A954A
:10014C0009F40EC0771C881C991C711A820A930A38
:10015C0028F4710E821E931E8894EECF0894ECCF77
:10016C00F894592E6A2E78949F908F907F900895D2
:10017C0014E630E03BBD1ABD08950F930FB70F93F3
:10018C0008B30F7A08BB0BB70F7B0BBF0F910FBFD8
:10019C000F9118950F930FB70F9308B30F7508BBFA
:1001AC000BB70F770BBF0F910FBF0F9118955FE037
:1001BC0052BF4FB751E0151A50E0250A58F4152CD0
:1001CC00262C5C2D57FD05C05B295A2919F0739517
:1001DC0001C07A9566275C2D5B295A2941F0572F6F
:1001EC0057706627E0E6F0E0E50FF61F608158B324
:1001FC005F70562B58BB50EC5ABF5BBF51E0351AA1
:10020C0050E0450A28F451E7352E52E0452E816026
:10021C004FBF18951030206040C08090903060C067
:0C022C00903060C0102040801020408006
:00000001FF
